:02000002B0004C
:1040000000400B00369E0B00000006000C0005026D
:084010000401B41400000000DB
:0440180040880B00D1
:1040200081F0004102E000BF83F0004330B54FEA69
:1040300041044FEA430594EA050F08BF90EA020FD6
:104040001FBF54EA000C55EA020C7FEA645C7FEA69
:10405000655C00F0E2804FEA5454D4EB5555B8BF8C
:104060006D420CDD2C4480EA020281EA030382EAFD
:10407000000083EA010180EA020281EA0303362D8F
:1040800088BF30BD11F0004F4FEA01314FF4801C62
:104090004CEA113102D0404261EB410113F0004F74
:1040A0004FEA03334CEA133302D0524263EB43032B
:1040B00094EA050F00F0A780A4F10104D5F1200EC9
:1040C0000DDB02FA0EFC22FA05F2801841F1000124
:1040D00003FA0EF2801843FA05F359410EE0A5F1F8
:1040E00020050EF1200E012A03FA0EFC28BF4CF029
:1040F000020C43FA05F3C01851EBE37101F00045DF
:1041000007D54FF0000EDCF1000C7EEB00006EEBEB
:104110000101B1F5801F1BD3B1F5001F0CD3490875
:104120005FEA30004FEA3C0C04F101044FEA4452CC
:1041300012F5800F80F09A80BCF1004F08BF5FEA53
:10414000500C50F1000041EB045141EA050130BD33
:104150005FEA4C0C404141EB0101013C28BFB1F545
:10416000801FE9D291F0000F04BF01460020B1FA90
:1041700081F308BF2033A3F10B03B3F120020CDA63
:104180000C3208DD02F1140CC2F10C0201FA0CF041
:1041900021FA02F10CE002F11402D8BFC2F1200CA6
:1041A00001FA02F120FA0CFCDCBF41EA0C0190405C
:1041B000E41AA2BF01EB0451294330BD6FEA0404A5
:1041C0001F3C1CDA0C340EDC04F11404C4F1200290
:1041D00020FA04F001FA02F340EA030021FA04F3A2
:1041E00045EA030130BDC4F10C04C4F1200220FAF9
:1041F00002F001FA04F340EA0300294630BD21FA37
:1042000004F0294630BD94F0000F83F4801306BFFC
:1042100081F480110134013D4EE77FEA645C18BFF0
:104220007FEA655C29D094EA050F08BF90EA020F87
:1042300005D054EA000C04BF1946104630BD91EA7F
:10424000030F1EBF0021002030BD5FEA545C05D182
:104250004000494128BF41F0004130BD14F58004C1
:104260003CBF01F5801130BD01F0004545F0FE4135
:1042700041F470014FF0000030BD7FEA645C1ABF6A
:10428000194610467FEA655C1CBF0B46024650EAA1
:10429000013406BF52EA033591EA030F41F40021CD
:1042A00030BD00BF90F0000F04BF0021704730B553
:1042B0004FF4806404F132044FF000054FF0000128
:1042C00050E700BF90F0000F04BF0021704730B5E9
:1042D0004FF4806404F1320410F0004548BF4042BE
:1042E0004FF000013EE700BF42004FEAE2014FEA13
:1042F00031014FEA02701FBF12F07F4393F07F4FEE
:1043000081F06051704732F07F4208BF704793F0F0
:104310007F4F04BF41F40021704730B54FF4607403
:1043200001F0004521F000411CE700BF50EA010206
:1043300008BF704730B54FF000050AE050EA0102AF
:1043400008BF704730B511F0004502D5404261EB1F
:1043500041014FF4806404F132045FEA915C3FF460
:10436000D8AE4FF003025FEADC0C18BF03325FEAFD
:10437000DC0C18BF033202EBDC02C2F1200300FAAE
:1043800003FC20FA02F001FA03FE40EA0E0021FAD3
:1043900002F11444BDE600BF70B54FF0FF0C4CF4C1
:1043A000E06C1CEA11541DBF1CEA135594EA0C0F73
:1043B00095EA0C0F00F0DEF82C4481EA030621EAAE
:1043C0004C5123EA4C5350EA013518BF52EA0335E9
:1043D00041F4801143F4801338D0A0FB02CE4FF09B
:1043E0000005E1FB02E506F00042E0FB03E54FF0CB
:1043F0000006E1FB03569CF0000F18BF4EF0010EC3
:10440000A4F1FF04B6F5007F64F5407404D25FEABE
:104410004E0E6D4146EB060642EAC62141EA555171
:104420004FEAC52040EA5E504FEACE2EB4F1FD0CB3
:1044300088BFBCF5E06F1ED8BEF1004F08BF5FEA31
:10444000500E50F1000041EB045170BD06F00046E3
:1044500046EA010140EA020081EA0301B4EB5C0490
:10446000C2BFD4EB0C0541EA045170BD41F4801188
:104470004FF0000E013C00F3AB8014F1360FDEBFAD
:10448000002001F0004170BDC4F10004203C35DA89
:104490000C341BDC04F11404C4F1200500FA05F30C
:1044A00020FA04F001FA05F240EA020001F00042AD
:1044B00021F0004110EBD37021FA04F642EB060123
:1044C0005EEA430E08BF20EAD37070BDC4F10C044D
:1044D000C4F1200500FA04F320FA05F001FA04F211
:1044E00040EA020001F0004110EBD37041F10001FD
:1044F0005EEA430E08BF20EAD37070BDC4F1200508
:1045000000FA05F24EEA020E20FA04F301FA05F26F
:1045100043EA020321FA04F001F0004121FA04F217
:1045200020EA020000EBD3705EEA430E08BF20EAE7
:10453000D37070BD94F0000F0FD101F00046400021
:1045400041EB010111F4801F08BF013CF7D041EAA3
:10455000060195F0000F18BF704703F000465200A7
:1045600043EB030313F4801F08BF013DF7D043EA78
:104570000603704794EA0C0F0CEA135518BF95EA2E
:104580000C0F0CD050EA410618BF52EA4306D1D1B5
:1045900081EA030101F000414FF0000070BD50EAD4
:1045A000410606BF1046194652EA430619D094EA5E
:1045B0000C0F02D150EA013613D195EA0C0F05D148
:1045C00052EA03361CBF104619460AD181EA03019C
:1045D00001F0004141F0FE4141F470014FF0000054
:1045E00070BD41F0FE4141F4780170BD70B54FF0EF
:1045F000FF0C4CF4E06C1CEA11541DBF1CEA13556F
:1046000094EA0C0F95EA0C0F00F0A7F8A4EB050450
:1046100081EA030E52EA03354FEA013100F0888047
:104620004FEA03334FF0805545EA131343EA126310
:104630004FEA022245EA111545EA10654FEA0026C5
:104640000EF000419D4208BF964244F1FD0404F57E
:10465000407402D25B084FEA3202B61A65EB0305DA
:104660005B084FEA32024FF480104FF4002CB6EB97
:10467000020E75EB030E22BFB61A754640EA0C0017
:104680005B084FEA3202B6EB020E75EB030E22BF57
:10469000B61A754640EA5C005B084FEA3202B6EB98
:1046A000020E75EB030E22BFB61A754640EA9C0057
:1046B0005B084FEA3202B6EB020E75EB030E22BF27
:1046C000B61A754640EADC0055EA060E18D04FEAE5
:1046D000051545EA16754FEA06164FEAC30343EA85
:1046E00052734FEAC2025FEA1C1CC0D111F4801F52
:1046F0000BD141EA00014FF000004FF0004CB6E74B
:1047000011F4801F04BF01430020B4F1FD0C88BFE9
:10471000BCF5E06F3FF6AFAEB5EB030C04BFB6EBF4
:10472000020C5FEA500C50F1000041EB045170BDE7
:104730000EF0004E4EEA113114EB5C04C2BFD4EB14
:104740000C0541EA045170BD41F480114FF0000E98
:10475000013C90E645EA060E8DE60CEA135594EA14
:104760000C0F08BF95EA0C0F3FF43BAF94EA0C0F17
:104770000AD150EA01347FF434AF95EA0C0F7FF48C
:1047800025AF104619462CE795EA0C0F06D152EAE0
:1047900003353FF4FDAE1046194622E750EA4106C4
:1047A00018BF52EA43067FF4C5AE50EA41047FF4D5
:1047B0000DAF52EA43057FF4EBAE12E74FF0FF3C3A
:1047C00006E000BF4FF0010C02E000BF4FF0010C0B
:1047D0004DF804CD4FEA410C7FEA6C5C4FEA430C84
:1047E00018BF7FEA6C5C1BD001B050EA410C0CBFD3
:1047F00052EA430C91EA030F02BF90EA020F002035
:10480000704710F1000F91EA030F58BF994208BF9B
:1048100090422CBFD8176FEAE37040F00100704758
:104820004FEA410C7FEA6C5C02D150EA013C07D1AF
:104830004FEA430C7FEA6C5CD6D152EA033CD3D0FA
:104840005DF8040B704700BF8446104662468C46F4
:104850001946634600E000BF01B5FFF7B7FF002827
:1048600048BF10F1000F01BD4DF808EDFFF7F4FF50
:104870000CBF012000205DF808FB00BF4DF808EDDB
:10488000FFF7EAFF34BF012000205DF808FB00BFFE
:104890004DF808EDFFF7E0FF94BF012000205DF820
:1048A00008FB00BF4DF808EDFFF7CEFF94BF0120D5
:1048B00000205DF808FB00BF4DF808EDFFF7C4FFCE
:1048C00034BF012000205DF808FB00BF4FEA410C17
:1048D0007FEA6C5C02D150EA013C0AD14FEA430CFA
:1048E0007FEA6C5C02D152EA033C02D14FF0000037
:1048F00070474FF0010070474FEA410212F5001275
:1049000015D211D56FF47873B3EB625212D94FEA16
:10491000C12343F0004343EA505311F0004F23FA00
:1049200002F018BF404270474FF00000704750EA55
:10493000013005D111F0004008BF6FF00040704712
:104940004FF00000704700BF4A0011D212F500126C
:1049500011D20DD56FF47873B3EB62520ED44FEAD7
:10496000C12343F0004343EA505323FA02F0704757
:104970004FF00000704750EA013002D14FF0FF3095
:1049800070474FF00000704710F8012B11F8013B01
:10499000012A28BF9A42F7D0D01A7047034613F86D
:1049A000012B002AFBD1181A0138704709480A491F
:1049B000884208B505D0094A824202D0121A03F093
:1049C000F5FD0748074A0021121A03F0FDFD0148D2
:1049D00008BD00BF7CE503209C9D0B00E8E503209B
:1049E000E8E50320F0E7032070B5074E074C02F01E
:1049F000CFFDA41BA4080025AC4200D170BD56F821
:104A0000043B98470135F7E7549D0B00789D0B0058
:104A100000F09CBD08B500F0E3FCBDE8084002F0E2
:104A20006FBD02F039BA02F037BA02F03DBA0000A9
:104A300008B5034A03490C2002F082F9FEE700BFE3
:104A4000316A0B0054880B000078B0FA80F04009FE
:104A5000704701230370704708B501F0F1FF034B65
:104A60001860BDE8084002F007BA00BF40E7032025
:104A700003682BB14268934202D2184603F08EBD00
:104A80000020704738B50568044645B143689D422B
:104A900005D22846FFF782FF0130054425602046F5
:104AA00038BDF8B5044647680D4621B903687A1C3D
:104AB0004260D955F8BD0846FFF770FFA368461C51
:104AC000F2199A42F6D8206832462946384403F053
:104AD0006DFD606830446060ECE7000038B5044666
:104AE0000B46D0E901012568044A091A284402F05E
:104AF000E3F9636801300344636038BD69880B00E3
:104B000038B504460B46D0E901012568044A091A64
:104B1000284402F0D1F9636801300344636038BD72
:104B20006C880B0010B5074C204601F0FDFB0121FD
:104B3000204601F092F900224FF00113C4E904234A
:104B400010BD00BF44E6032008B50023437700688A
:104B500003F084F9BDE8084001F0F4BE2DE9F0430C
:104B600001EB02098FB04945CDE9051980460D4694
:104B7000164680F0928005A80F88FFF783FF036830
:104B80004B4580F08A8005A8FFF772FF47F2762335
:104B90009F42C4B200F0A98027D847F261239F4208
:104BA0007ED047F264239F4242D046F670539F4224
:104BB00028D1634E634FDFF8A081059B99456CD9DE
:104BC00005A8FFF755FFC4B205A8FFF75BFF059DD9
:104BD00031462846FFF7D8FE0146E0B9204603F0EB
:104BE000C9FA05A8FFF74EFFE7E747F264739F4253
:104BF0003FD047F276739F4200F0878047F261739F
:104C00009F425FD00023CDE9013302220092B8F821
:104C10001A20194629E039462846FFF7B5FE28B183
:104C200041462846FFF7B0FE0028DAD10121D5E73A
:104C30000AAB4549079307A810230025CDE908537F
:104C4000FFF72FFF07A82146FFF748FF204603F094
:104C5000BBFA014607A8FFF753FF089BCDE90155B2
:104C6000013B0093079B2A461421404600F084FA3A
:104C700013E005A8FFF706FF036899450DD9A4B214
:104C80000121204603F076FA05A8FFF7F1FE011E88
:104C900018BF0121204603F07EFA0FB0BDE8F08373
:104CA0000AAB079307A8102328490025CDE908532C
:104CB000FFF7F7FE07A82146FFF710FF204603F095
:104CC00096FAC6E705A8FFF7DDFE03689945E4D923
:104CD000A4B20121204603F04DFA05A8FFF7C8FE53
:104CE0000146204603F09AFAD7E720468DF828407F
:104CF00001F02AFE03460AA823B1154A934201D0C7
:104D00009847CAE701F01CFEC7E705A8FFF7BAFEFF
:104D1000059B8DF81C405D1B751B2046CDE90A35AF
:104D20000C9501F01BFE03460AA907A823B1094A06
:104D3000934201D09847B0E701F003FEADE700BF12
:104D400070880B0073880B007B880B007E880B003B
:104D500041690B0043690B0077880B002DE9F04196
:104D60008CB004AF044605220068391D02F05FFBD9
:104D7000A8B3052804D000202037BD46BDE8F08147
:104D8000B7F8050001F08CFEA7F80500B7F807009A
:104D900001F086FEB7F80530A7F807008046002B23
:104DA000E9D03B7923BB01F0C9FD0246E060607F9A
:104DB000B7F80730C0B9B7F80510012914D1092B8D
:104DC0000FD0C82B01D0042BD6D10125626120461B
:104DD000657700F081FAFFF73FFE01F0B3FD012097
:104DE000CAE703236377C7E7581F18BF0120C3E74B
:104DF000B0F5806F03D92046FFF7A6FEEFE700F17C
:104E0000080323F007036E46ADEB030D04AD024625
:104E10002946206802F00BFB80454FF000007FD14F
:104E2000B7F80730E85401F089FD3B79E060142BB6
:104E300000F0A68048D80F2B00F0A28007D8022BE4
:104E400048D0062B51D02046FFF77EFE58E0112BAC
:104E5000F9D100233B70B7F807302B449D42C7E9D6
:104E600003534DD207F10C00D5F80080FFF70AFE7E
:104E7000FB68B7F807105D1B4D1BC7E905357B685C
:104E8000FD61C3F30F236383644B984500F0BF803B
:104E900000F28C80A3F57F236FF4007213449845D1
:104EA00000F09D8079D8A3F50033063B984500F0CB
:104EB0009C8003F50033033398456BD107F114014F
:104EC000384601F03EFD65E0292B1BD0372B17D06B
:104ED0001D2BB8D1637F43B901236377204600F0CF
:104EE000FBF9FFF7B9FD01F02DFD0023C821B7F84C
:104EF00005200091CDE901331946204600F03CF928
:104F000001200DE0A3681BB9402001F0C5FFA0609F
:104F1000B7F80780A8444545C7E9055802D30020E3
:104F2000B54629E729464022A06803F083FBA36821
:104F3000002583F83F5007F11400FFF7A3FD036835
:104F400098451BD9786920B1BB69984214D203F007
:104F500029FB85B2206802F081FF2368A2685A63AA
:104F60001D870023637701F0E9FCA0F59C50083809
:104F7000C4E903006061C3E72846EAE75025E9E792
:104F80007B68B7F80720C3F30F23638329462046C5
:104F9000FFF7E4FD00236383B2E7214B9845F9D185
:104FA00007F11401384601F0CCFCF3E71D4B98459E
:104FB00021D003F19F6303F5003303F58073984517
:104FC0001FD003F16E4303F5302303F58673984534
:104FD000E0D107F11401384601F0B3FCDAE707F13C
:104FE0001401384601F0ADFCD4E707F1140138464E
:104FF00001F0A7FCCEE707F11401384601F0A1FC4F
:10500000C8E707F11401384601F09BFCC2E707F13D
:105010001401384601F095FCBCE700BF76667300CA
:105020006462670061636F6E2DE9F04104468CB0E5
:105030000D46FFF711FD637F022B1ED0237F628B8D
:105040000133DBB22377AAB9022B13D8206802F010
:10505000CDFDA8B125B9206802F0A6FE00280FDD1D
:105060002046FFF77BFE0028F5D1206802F0F6FE0F
:1050700001F068FC237F013B23770CB0BDE8F08191
:1050800001F05CFC0546206802F0B0FD677F012F4F
:10509000064624D120B965612046FFF755FDE9E7B2
:1050A000E3684FF21862EB1A9342F5D84AF6C872D9
:1050B000934203D82369EB1A9342DBD9636941F227
:1050C0007072EB1A9342D5D90023CDE901330093D6
:1050D0001A460621204600F04FF86561CAE7002F06
:1050E000C8D16369EB1A40B141F270729342C1D9E1
:1050F000206802F0B3FE6777BCE741F28832934242
:10510000B8D9206802F0AAFED4F800C0DCF834E078
:10511000BCF83880BEF1000F1BD0334642467146C2
:10512000604602F0E5FC0128D7D1636805930125AC
:1051300018462583FFF732FC0022CDE90122059BAA
:1051400000902A461D21204600F016F8236963616D
:1051500090E7084B06930CF120070FCF07AE0FC660
:105160003B6833704246734606A9604602F0A0FDD4
:10517000D9E700BF3C990B002DE9F04F83B000AF99
:10518000044600683D6B884616469946EB4602F099
:105190002DFD002800F08180B8F11D0F04D84D4B83
:1051A00023FA08F3DB0702D4637F012B75D146B9DC
:1051B000668B36B9238B01339BB2002B72D02383CD
:1051C000268BA8F10C03082B16D8D4E903239342AD
:1051D00038BF134603F1420A01F0B0FBAAEB00000E
:1051E000002861DB00212046FFF71EFF01F0A6FB2F
:1051F000AAEB00000028F5DAB9F1000F5BD06B1DB7
:105200007A6B002ABA6B08BF002203EB020A0AF18C
:10521000070323F00703ADEB030D30468DF8008044
:10522000C7F804D001F044FCBB6BADF80100E818EE
:1052300080B201F03DFCADF80300B9F1000F3CD0A5
:10524000002D3AD02A4649460DF1050003F0AEF98B
:10525000681D7B6B3BB1BB6B2BB11A467B68796BCE
:10526000184403F0A3F9002555452AD2AAEB0502FC
:105270007B682068B2F5806F28BF4FF480625919AF
:1052800002F08BFB0646002001F056FBBEB92068F9
:1052900002F0E4FD667701F055FB0C37DD46BD46B4
:1052A000BDE8F08F01238AE7217F0029A4D12046A1
:1052B000FFF7BAFEA0E70523A2E70520C9E73544BA
:1052C000D2E703D02046FFF73FFCE6E701F036FBCC
:1052D0002061E2E74500002030B599B008AB0446F4
:1052E00005930025402305A80B49CDE90653FFF798
:1052F000D8FB05A80949FFF7D4FB069B0293059B41
:105300000193652300932A46054B11212046FFF7A0
:1053100033FF19B030BD00BF81880B0086880B00B9
:105320001D890B0070B5ADF5846D08AB16460024E1
:105330000546059305A84FF48063CDE90643FFF7C2
:10534000B0FB314605A8FFF7ACFB069B013B009381
:10535000CDE90144059B224640212846FFF70CFF7A
:105360000DF5846D70BD000070B52DED028BB0EEB3
:10537000408AF0EE608AADF5846D08AB00240546E6
:105380000E46059305A84FF480631349CDE9064303
:10539000FFF787FB314605A8FFF7A0FBDDE90631E3
:1053A00005980E4AC91A8DED008B184401F084FD52
:1053B000431C069803440693013B0093CDE9014446
:1053C000059B224614212846FFF7D6FE0DF5846D75
:1053D000BDEC028B70BD00BF94880B0097880B005A
:1053E00038B54B484B4C2DED048B00F0AEFD4A48D0
:1053F0000021FFF719FE464800F0C0FDF0B1474A12
:1054000047494548FFF78EFF02F0E0F9454901F0B2
:10541000C1FEFFF787FB44493D4801F0CEFE3C4802
:1054200001F0F0F944F620632360BDEC048B23689F
:10543000002BC4BF03F1FF33236038BD2568002D66
:10544000F3D10E2002F0D3FEC117FEF76FFF2CA39D
:10545000D3E90023FEF7A0FF2BA3D3E90023FFF736
:10546000C5F8324B0022FEF7DFFD314B0022FEF77C
:1054700093FF02460B4643EC182B2E4B0022FEF7FF
:105480008BFF2D4B0022FFF7B1F82C4B0022FEF7CB
:10549000CDFD41EC190BFFF745FB29491C4801F0F4
:1054A0008CFEB0EE480AF0EE680A0221184801F0BE
:1054B00075FF2449164801F06DFEB0EE490AF0EE82
:1054C000690A0221124801F069FF1F49104801F0E2
:1054D00061FE0F4801F096F9B0EE490AF0EE690A54
:1054E00029460D48FFF740FFB0EE480AF0EE680A83
:1054F00009480121FFF738FF97E700BFAFF30080AD
:105500006666666666660A400000000000FEAF4000
:1055100044E60320B4E60320E8E503209D880B0061
:10552000BD880B00C5880B00CB880B000000E03F56
:10553000000059400000224000001440000040409C
:10554000D5880B00E1880B00E6880B00F8B5002138
:105550000E2002F00FFE1C4C40F6B83001F0ECF9C2
:105560001A4B636001F0EAF9A0F59C502368184AD1
:105570005A630838C4E90300502260611A87002684
:1055800044F24F67206802F069FC667701F0D6F9B3
:105590000546637F012B0CD001F0D0F9401BB842C7
:1055A00004D800212046FFF73FFDF2E7637F012B7F
:1055B000E8D1084800F0A0FC02F008F9BDE8F84086
:1055C0004FF4165102F0F6B8E8E50320E8880B0026
:1055D00009890B0044E6032010B50E4C204602F06A
:1055E00087FC04F11C0002F03FF80B4B0021C3E9DB
:1055F0000041C3E90211C3E90411996199830120B3
:105600006163218701F0BCFBBDE81040034807211E
:1056100000F044BC08E60320E8E5032044E603204C
:10562000704710B510210446FFF7FFF9204610BD62
:105630000EB403B503AB002153F8042B019301F022
:10564000B0FE02B05DF804EB03B0704773B50446DA
:1056500008462279A36832B1A3B90B4902B0BDE86C
:10566000704001F097BD094A267B094D0949647BCA
:10567000012E18BF2946CDE900140749FFF7D8FFCE
:1056800002B070BD054AEFE795890B00E5880B0075
:1056900091890B008D890B00AB890B0084890B006D
:1056A0002DE9F04F85B01F46BDF93880BDF83C307C
:1056B000A8EB0209A7EB010AB9F1000FB8BFC9F1C5
:1056C0000009BAF1000FB8BFCAF1000AD1458346FC
:1056D0000C46154604DD3A462C4647460D46904694
:1056E000BC4205DD2A464546904622463C461746C2
:1056F0003E1BB2B20092A8EB050282EAE271A1EB76
:10570000E271C6F3C03202FA86F64545B4BF012203
:105710004FF0FF32019176100292BC421CDCDBF8A4
:1057200000200393D145D2F81880C7BF29462246EE
:105730002A4621465846C047019A039BB61AB1B281
:1057400036B2002E05DA029A1544009A56182DB288
:1057500036B2013424B2E0E705B0BDE8F08F7047FF
:1057600010B404682469A4465DF8044B604730B463
:105770000468BDF808500295A46BA44630BC60478D
:1057800030B40468BDF808500295E46BA44630BC00
:10579000604770B4BDF90C50BDF810600468CDE9E5
:1057A0000356246CA44670BC60472DE9F3411C46A7
:1057B0000368BDF820805B6905461646013C344409
:1057C0000F4624B298472B68CDF8048000949C6A59
:1057D00028463B4632463946A0472B68DB6A2846B6
:1057E00002B0BDE8F04118472DE9F3411D460368BA
:1057F000BDF820805B69044617460E469847CDE900
:10580000007822686B1E3344956A20461BB23A46E4
:105810003146A8472368DB6A204602B0BDE8F04164
:1058200018472DE9F3471E460368BDF928905B69C8
:10583000BDF82C800C460546174698472644B442CE
:105840002B680BDACDF80080D3F820A021464B4618
:105850003A4628460134D04724B2F0E7DB6A2846AE
:1058600002B0BDE8F047184713B502680191B0F9DE
:105870000E100091146CB0F90C3000221146A047B4
:1058800002B010BD2DE9F74399421646BDF92870C4
:10589000BDF82C90026880460D461C4613D1BE42CE
:1058A000C8BF3346CDF82890C4BF3E461F467B1C78
:1058B000946B9B1B1BB2324629464046A44603B05C
:1058C000BDE8F0436047BE420AD19942C2BF0B46D1
:1058D00025461C46631CCDF82890D46B5B1BE9E77A
:1058E00053699847CDE90079D8F8003040469F6A5F
:1058F000324623462946B847D8F80030DB6A40468E
:1059000003B0BDE8F04318472DE9F3471D4603688F
:10591000BDF82C805B69BDF9289004460F461646F9
:1059200098472368CDF80080D3F824A032462B4650
:1059300039462046D0472368CDF8008009F1FF3270
:105940003244D3F824A039462B46204612B2D04721
:105950002368CDF80080D3F820A032464B46394664
:105960002046D0476B1ED9192368CDF800801D6AE8
:1059700020464B46324609B2A8472368DB6A2046D8
:1059800002B0BDE8F0471847704701F00303B0F9D3
:105990000A208376C907B0F9083059BF8381C281D4
:1059A0008281C3817047000030B54281C281074ABD
:1059B000074D0181002481814FF0FF31C0E90512BC
:1059C0004460056004610477046230BD0101000198
:1059D000D08E0B002DE9F04F89B0CDE9021202689C
:1059E000BDF948800493BDF94C3052690593BDF868
:1059F00050A00446904718F107024FF0000648BF38
:105A000008F10E024FEAE20B01963546039B019A1C
:105A1000BDF904109A18059B8B4212B227DD049B36
:105A200033444FF0000906930FFA89F080451FFABE
:105A300089F117DD4F0705BF069BC0106D001D5C87
:105A400018BFEDB22B060AD5029B206807921944B5
:105A5000836909B21F4620465346B847079A09F1A1
:105A60000109E1E7019B013301935E44CEE723681E
:105A7000DB6A204609B0BDE8F04F18472DE9F04F2A
:105A80002DED028B91B01646026ABDF874809DF828
:105A900078509DF87C4003911F46BDF87030049308
:105AA0008346002A40F0C580B0F90C308B4240F3A9
:105AB0004C81B0F90E30B34240F34781062313FB0B
:105AC0000513002B40F3418106EBC403002B40F388
:105AD0003C81037F1BB9AF2F84BF0137FFB2DBF8D6
:105AE000003058465B6998470522099200220592CA
:105AF000984A07EB8703D3180C93B3B20693059A21
:105B00000C9B9B5C0793ABB20B93BDF80C300893D6
:105B1000039B02FB05F919FA83F90FFA89F308EEE2
:105B2000103A08230A93039B02EB030A4FF0000983
:105B30000FFA8AFA079ADBF80030D20752D5012D06
:105B40001FFA89F23ED1012C3CD19B6906991F4670
:105B5000049B0A4412B251465846B84709F1010362
:105B60004FFA83F9079B5B0807930A9B013B13F0ED
:105B7000FF030A93DED1059F01377BB20593099B92
:105B8000013B13F0FF030993B9D1049B43450FD0A8
:105B9000012DDBF800303BD1012C39D10899CDF82B
:105BA000008005311C6A3246082309B25846A047D6
:105BB000DBF80030DB6A584611B0BDEC028BBDE863
:105BC000F04F1847069914FB02F20A440499019118
:105BD0000094DB6918EE101A1F4612B22B46584685
:105BE000B847BBE7049A4245B8D0012D1FFA89F2A5
:105BF00007D1012C05D19B6906991F460A444346EB
:105C0000A8E70699CDF8048014FB02F20A44DFE706
:105C10000B9ACDF8048002EB8201089AE4000A4452
:105C200011460094DC6932462B4609B25846A0471B
:105C3000BEE7137A516812680B92FF1AFFB201EBAC
:105C4000C70331F8372006929A780992DA780C92D5
:105C5000012D93F9052093F906A00A9201D8012C91
:105C600057D9BDF9283008930FFA8AF30793DBF868
:105C7000003058465B699847B3B24FF000080E9366
:105C80001AFA86F3C14647460F930C9B9F428FD268
:105C9000079B0E9A3B4403FB0423002205920F9AB4
:105CA0001BB202EB070A08EE103A0FFA8AFA4346D3
:105CB000099A0599914241D25A1CD2B25B070D92C2
:105CC00007D1069B06990B9A01339BB212F80190FB
:105CD000069319F0800F12D0012DDBF80030BDF8CB
:105CE0000C101AD1012C18D10A9A9B691144059AFB
:105CF00011441E465246049B09B25846B047059EC1
:105D00000136F3B24FEA490905935FFA89F90D9B11
:105D1000CEE70023CDE90733A9E70598089A0244A6
:105D200002FB0511049ACDE90042DB6918EE102A46
:105D30001E4609B22B465846B047E0E7099B01379B
:105D400098445FFA88F8FFB29FE711B0BDEC028B70
:105D5000BDE8F08FC8890B00F0B5026A85B0044633
:105D60000B46002A34D10A2908D1438A0282427E96
:105D700003EBC2036382012005B0F0BD0D29FAD008
:105D8000E17E007E657E71B1B4F91060062111FBE1
:105D90000061B4F90C60B142C1BFB4F912102282A3
:105DA00001EBC5026282E28A0192A28A0092CDE9E9
:105DB0000205B4F91220B4F910102046FFF75EFE78
:105DC000237E228A03EB430302EB43032382D2E7C1
:105DD0000A2907D100230382417E927A438A01FB7C
:105DE0000233C7E70D29C6D0157AA942C3D3517A29
:105DF0009942C0D351685D1BEDB201EBC505A8788F
:105E000028B3E97819B3E17E267E677E91B195F9D2
:105E100005100844B4F9101006FB0011B4F90C0089
:105E2000814207DD00202082B4F91210927A02FB31
:105E300007126282E28A0192A28A0092CDE9026789
:105E4000B4F91220B4F910102046FFF717FE297993
:105E5000227E238A01FB0233B8E7012938BF0121E2
:105E6000017641767047000010B5064B036004468A
:105E7000006D08B100F0F4FD204600F0E3F8204684
:105E800010BD00BF288F0B0010B50446FFF7ECFFD4
:105E900020467021FEF7C9FD204610BD30B585B003
:105EA00004460D4602F03CFA104A1149CDE90121A1
:105EB0004FF0FF328021034600922046202200F05E
:105EC00039F90C4B23600023C4E9143504F1580060
:105ED00000F05EF804F1600000F05AF804F1680088
:105EE00000F056F8204605B030BD00BF801A06000D
:105EF000A0860100288F0B0013B50446503000F037
:105F0000A7FD636DD90705D50222042104F15800CD
:105F100000F052F8636D9A0705D50022032104F1C1
:105F2000600000F049F8636D5B0705D50222114659
:105F300004F1680000F040F8012300933C220221A4
:105F4000204600F0FFF902B010BD10B5436DD9072F
:105F5000044602D5583000F03CF8636D9A0703D52B
:105F600004F1600000F035F8636D5B0705D504F1BE
:105F70006800BDE8104000F02CB810BD436D02462B
:105F800013F0010003D002F1580000F052B870473E
:105F900000210A22C0E900127047002310B5044610
:105FA000C171837188B202F00FF908B10323A371A4
:105FB00000F046FD206010BD38B50C460546114680
:105FC000A0B202F0D7F821462846BDE83840FFF7D6
:105FD000E4BF38B50446C07902F0F6F8A579003878
:105FE00025F0080318BF0120C5F340058542A371C1
:105FF0000AD000F025FDA379206083F00203A3718D
:10600000A079C0F3C00038BD00F01AFD2368C01AA3
:10601000A3889842F4D3A37903F00103AB42EFD0F5
:1060200000F00EFDA379206083F0010343F0080324
:10603000E5E7807900F00900A0F1080358425841D3
:106040007047000010B5044B03600446C06A08B1F5
:1060500000F02AFF204610BD34940B0010B5044612
:10606000FFF7F0FF20465021FEF7DFFC204610BD71
:10607000002910B54BDBB0F90C408C4247DD002AFB
:1060800045DBB0F90E40944241DD847E022C1FD0E6
:10609000032C26D0012C04D10489D24314440A468F
:1060A00021B2012B23D0022B32D083BB002A13460E
:1060B0000489C06AB8BFD31DDB1013FB041102F0C2
:1060C000070201239340425C22EA030242541EE08D
:1060D0000489013C611A4489D243224409B212B2B4
:1060E000DFE74489013C641A114622B2D9E7002A4D
:1060F00004891346B8BFD31DDB1013FB0411C36A18
:1061000002F0070001228240585C02435A5410BD3D
:10611000002A13460489C06AB8BFD31DDB1013FBE5
:10612000041102F00702012303FA02F2435C5A4011
:10613000CCE7000070B504461D460026FFF734FC8E
:10614000114B2360666215B902F0EAF80546FF2399
:1061500084F8333084F836309DF9103084F83730C5
:106160000A4BA363012384F83C30059BA3644FF6DC
:10617000FF72069BA286C4E90A562664A4F844600E
:10618000E364204670BD00BF34940B00808F0B0089
:10619000F8B50446806A0D4690B194F9301001F0CC
:1061A000E5FBA06A036800219B689847A06A036822
:1061B00029469B689847A06ABDE8F84001F0DDBB1E
:1061C00094F93530014698B201F0E5FF606A20B1DC
:1061D0002946BDE8F84000F081BF0826802794F9E1
:1061E000330005EA070180B201F0D5FF94F93400CD
:1061F000012180B201F0CFFF94F93400002180B278
:1062000001F0C9FF013E4FEA5707E8D1F8BD38B5A4
:106210000446806A0D4680B1A16C01F099FB002D07
:10622000204614BFA721A621FFF7B2FFA06A88B1BC
:10623000E16CBDE8384001F08BBB606A18B104F135
:10624000380100F0DDFE94F93600002180B201F043
:10625000A2FFE4E794F93600012180B201F09BFF30
:10626000606A18B1BDE8384000F0B0BE38BD2DE915
:10627000F8430446806A0D468F1840B394F93010F5
:1062800001F074FBA06A036800219B68984701260F
:10629000AF42A06A17D01F2E0CD901F06EFB94F903
:1062A0003010A06A01F062FBA06A036800219B68BD
:1062B00098470126A06A15F8011B036801369B6800
:1062C0009847F6B2E4E7BDE8F84301F056BB94F90D
:1062D0003530014698B201F05EFFBD4222D0606ABF
:1062E00015F8019B18B1494600F0F8FEF5E70826BD
:1062F0004FF0800894F9330009EA080180B201F0F8
:106300004AFF94F93400012180B201F044FF94F96E
:106310003400002180B201F03EFF013E4FEA5808F0
:10632000E8D1DAE7BDE8F883B0F90A30DA1D48BFF2
:1063300003F10E02B0F90830C06AD2105A430021AE
:1063400002F042B92DE9FF411E46C36A9DF828803C
:1063500004460F461546C3B12046FFF7E5FFB4F9E2
:106360000A00B4F90810202821DC2023012220385B
:10637000CDE9013200EBD07073237339009301EB48
:10638000D171894B40F34F0221E0B0F90A30D81D9A
:1063900048BF03F10E00B4F90830C010584300F0B4
:1063A0007BFDE0620028D7D104B0BDE8F081403821
:1063B000C0F3C03202FA80F240230120CDE901305F
:1063C000522352390093794B01EBD1715210204680
:1063D00041F34F01FFF7FEFAA06A84F831700028FC
:1063E00078D0002D74D1B4F90A30202B0CBF3C2595
:1063F0003D2584F83050B8F1000F01D001F0ACFA1F
:10640000FEB194F9370000281BDB012180B201F0B6
:10641000B1FE94F93700012180B201F0BCFE0120E9
:1064200001F02CF894F93700002180B201F0B3FE9E
:106430000A2001F023F894F93700012180B201F01D
:10644000AAFEA06A002874D0A16C01F081FA04228F
:1064500057492046FFF70BFF61890139C9B2204631
:10646000FFF796FE534904222046FFF700FF94F9F8
:106470003130012B0CBF102114212046FFF788FE7C
:1064800004224D492046FFF7F2FEA3684B4A93428F
:106490005CD14B4904222046FFF7E9FED921204672
:1064A000FFF776FE94F93130012B0CBF2221F12148
:1064B0002046FFF76DFE204642490622FFF7D7FE31
:1064C000A06A002863D0E16C01F042FA01206BE77A
:1064D0006DB28EE794F93500012180B201F04AFED9
:1064E00094F93600012180B201F044FE94F936009F
:1064F000012180B201F04FFE656A3DB1B8F1000F95
:106500003FF47EAF284600F04DFD79E794F9330063
:10651000012180B201F02EFE94F93400012180B2F5
:1065200001F028FE94F93400294680B201F033FED0
:1065300066E7606A18B104F1380100F061FD94F972
:106540003600002180B201F026FE80E71E4A934209
:106550000ED11E4903222046FFF789FE94F93130FF
:10656000012B0CBF9F21CF212046FFF711FE95E79D
:10657000174A934292D1174903222046FFF777FE2C
:1065800094F93130012B0CBF1021AF21ECE794F9C5
:106590003600012180B201F0FEFD606A002895D02E
:1065A00000F014FD92E700BF4C920B008C8F0B00A3
:1065B00094940B0098940B009C940B008000200096
:1065C000A6940B00A0940B0080004000AA940B003E
:1065D00060001000AD940B0070B5002ABDF810509B
:1065E0003DDBB0F90A40944239DD0029BEBF5B189B
:1065F0001BB20021B0F90840CE18A642C4BF631AEE
:106600001BB2002B2BDDC06AD61014FB061101440F
:1066100002F0070001228240012DD2B216D0022DD5
:106620000BD0E5B9D243D2B20B44994217D011F83E
:10663000010B104001F8010CF7E70B4499420ED012
:1066400011F8010B504001F8010CF7E70B44994297
:1066500005D011F8010B104301F8010CF7E770BDEC
:10666000F0B50029BDF8145076DBB0F90860B142EE
:1066700072DA002ABEBF9B181BB20022B0F90A4092
:10668000D718A742C4BFA31A1BB2002B64DDC2F304
:10669000C404C76A16FB041612F00702DBB207EB4C
:1066A000060423D0C2F10802D2B22D4993423CBF66
:1066B0004FF0FF0CA2EB030E895C3CBF4CFA0EFCC2
:1066C0000CEA0101012D07D0022D2ED04DB917F88B
:1066D00006C02CEA010103E017F806C041EA0C01EC
:1066E000B955934238D3B0F908100C449A1AD2B273
:1066F000072A0ED9022D1DD113462178C9432170D6
:10670000083BB0F90810DBB2072B0C44F5D802F0B7
:1067100007020AB3134B012D9B5C1AD0022D1CD02B
:10672000D5B9227822EA030315E017F806C081EAFA
:106730000C01D5E7291E18BF01214942C9B21346F1
:106740002170083BB0F90860DBB2072B3444F7D85E
:10675000DDE7227813432370F0BD22785340FAE737
:1067600084940B008C940B0070B41446827EBDF8A8
:106770000C60022A0DD0032A18D0012A11D10289F7
:10678000E443144424B203960A46214670BCFFF742
:1067900067BF42890589E44319441444691A24B245
:1067A00009B20396224670BCFFF716BF458919440B
:1067B000691A09B2E7E730B41446827EBDF8085082
:1067C000022A0DD0032A18D0012A11D1E218048917
:1067D000A41A24B202950A46214630BCFFF7FCBE3B
:1067E0000289C9431144E2184489A41A09B224B2A7
:1067F0000295224630BCFFF733BF4289C94311449A
:1068000009B2E7E72DE9F8430446806A002842D040
:10681000A16C01F09DF8474905222046FFF727FDAE
:10682000218901392046C9B2FFF7B2FCB4F90A3018
:10683000DE1D48BF03F10E06D4E90A052389F610D0
:1068400013FB06F615FA86F600283AD094F93010B4
:1068500001F08CF8A06A036840219B6898470127E3
:10686000B542A06A24D01F2F0CD901F086F894F904
:106870003010A06A01F07AF8A06A036840219B6892
:1068800098470127A06A15F8011B036801379B6828
:106890009847FFB2E4E7606A18B104F1380100F0EC
:1068A000AFFB94F93600002180B201F074FCB2E72E
:1068B00001F063F8A06A78B3E16CBDE8F84301F039
:1068C00047B894F93500012180B201F064FCAE4272
:1068D000F0D0606A15F8019B18B1494600F0FEFB44
:1068E000F5E708274FF0800894F9330009EA08011A
:1068F00080B201F050FC94F93400012180B201F023
:106900004AFC94F93400002180B201F044FC013FBC
:106910004FEA5808E8D1DAE794F93600012180B24D
:1069200001F039FC606A18B1BDE8F84300F04EBBD5
:10693000BDE8F883B0940B0000F0A0BD00F080B873
:10694000704770477047000003065ABF024B53F868
:1069500020000020704700BFB8940B0003065ABF08
:10696000024B53F820000020704700BFB8960B0080
:1069700008B5024B1B689B68019308BD68020300C1
:1069800008B5024B1B68DB68019308BD6802030071
:1069900008B5024B1B685B68019308BD2C0203001D
:1069A00008B5024B1B689B68019308BD2C020300CD
:1069B00008B5024B1B68DB68019308BD2C0203007D
:1069C00008B5024B1B681B69019308BD2C0203002C
:1069D00008B5024B1B685B69019308BD2C020300DC
:1069E00008B5024B1B689B6A019308BD2C0203008B
:1069F00008B5024B1B681B6B019308BD2C020300FA
:106A000008B5024B1B689B6F019308BD2C02030065
:106A100008B5024B1B685B69019308BD6C0203005B
:106A200008B5024B1B685B68019308BD18020300A0
:106A300008B5024B1B68DB68019308BD1802030010
:106A400008B5024B1B685B69019308BD180203007F
:106A500008B5024B1B681B6B019308BD480203007D
:106A600008B5024B1B685B6B019308BD480203002D
:106A700008B5024B1B685B6C019308BD480203001C
:106A800008B5024B1B685B69019308BD64020300F3
:106A900008B5024B1B681B6A019308BD6402030022
:106AA00008B5024B1B685B6A019308BD64020300D2
:106AB00008B5024B1B689B6A019308BD6402030082
:106AC00008B5024B1B68DB68019308BD3C0203005C
:106AD00008B5024B1B681B69019308BD3C0203000B
:106AE00008B5024B1B685B69019308BD3C020300BB
:106AF00008B5024B1B689B69019308BD3C0203006B
:106B000008B5024B1B68DB69019308BD3C0203001A
:106B100008B5024B1B681B6A019308BD3C020300C9
:106B200008B5024B1B689B6A019308BD3C02030039
:106B300008B5024B1B681B6C019308BD3C020300A7
:106B400008B5024B1B681B68019308BD28020300AF
:106B500008B5024B1B68DB68019308BD28020300DF
:106B600008B5024B1B689B69019308BD280203000E
:106B700008B5024B1B68DB69019308BD28020300BE
:106B800008B5024B1B681B6A019308BD280203006D
:106B900008B5024B1B685B6A019308BD280203001D
:106BA00008B5024B1B689B6A019308BD28020300CD
:106BB00008B5024B1B68DB6A019308BD280203007D
:106BC00008B5024B1B681B6B019308BD280203002C
:106BD00008B5024B1B685B6B019308BD28020300DC
:106BE00008B5024B1B681B6C019308BD280203000B
:106BF00008B5024B1B689B69019308BD380203006E
:106C000008B5024B1B68DB69019308BD380203001D
:106C100008B5024B1B681B6A019308BD38020300CC
:106C200008B5024B1B689B6A019308BD380203003C
:106C300008B5024B1B681B6B019308BD38020300AB
:106C400008B5024B1B689B6B019308BD380203001B
:106C500008B5024B1B681B68019308BD3002030096
:106C600008B5024B1B685B69019308BD3002030045
:106C700008B5024B1B68DB69019308BD30020300B5
:106C800008B5024B1B681B6A019308BD3002030064
:106C900008B5024B1B685B6A019308BD3002030014
:106CA00008B5024B1B68DB6B019308BD3002030083
:106CB00008B5024B1B681B6C019308BD3002030032
:106CC00008B5024B1B685B6C019308BD30020300E2
:106CD00008B5024B1B681B68019308BD4C020300FA
:106CE00008B5024B1B685B68019308BD4C020300AA
:106CF00008B5024B1B681B69019308BD4C020300D9
:106D000008B5024B1B685B69019308BD4C02030088
:106D100008B5024B1B689B69019308BD4C02030038
:106D200008B5024B1B68DB69019308BD4C020300E8
:106D300008B5024B1B681B6A019308BD4C02030097
:106D400008B5024B1B685B6B019308BD6002030032
:106D500008B5024B1B681B6D019308BD6002030060
:106D600008B5024B1B685B68019308BD2002030055
:106D700008B5024B1B685B69019308BD2002030044
:106D800008B5024B1B68DB6A019308BD20020300B3
:106D900008B5034B1B68D3F88830019308BD000089
:106DA0002002030008B5034B1B68D3F8943001930D
:106DB00008BD00002002030008B5024B1B685B6899
:106DC000019308BD4002030008B5024B1B689B6895
:106DD000019308BD4002030008B5024B1B68DB6845
:106DE000019308BD4002030008B5024B1B681B69F4
:106DF000019308BD4002030008B5024B1B685B69A4
:106E0000019308BD4002030008B5024B1B689B6953
:106E1000019308BD4002030008B5024B1B68DB6903
:106E2000019308BD4002030008B5024B1B681B6AB2
:106E3000019308BD4002030008B5024B1B681B6BA1
:106E4000019308BD4002030008B5024B1B685B6B51
:106E5000019308BD4002030008B5024B1B681B6C80
:106E6000019308BD4002030008B5024B1B685B6C30
:106E7000019308BD4002030008B5024B1B689B68E4
:106E8000019308BD4402030008B5024B1B68DB6B8D
:106E9000019308BD4402030008B5024B1B681B6840
:106EA000019308BD1C02030008B5024B1B685B6818
:106EB000019308BD1C02030008B5024B1B68DB6987
:106EC000019308BD1C02030008B5024B1B685B6AF6
:106ED000019308BD1C02030008B5024B1B68DB6B65
:106EE000019308BD1C02030008B5024B1B681B6C14
:106EF000019308BD1C02030008B5024B1B685B6CC4
:106F0000019308BD1C020300002240681146FFF7F0
:106F10008BBF002240681146FFF796BF40680022F1
:106F2000FFF78ABF4068002281F00101FFF774BFBC
:106F3000002340681A461946FFF766BF00234068E1
:106F40001A461946FFF758BF002240681146FFF75E
:106F50004BBF002240681146FFF736BF4068002251
:106F60000221FFF739BF002340681A46FFF724BF0C
:106F7000024B03225A60024A1A607047C4E603209B
:106F8000C0980B000021FFF79BBE0021FFF790BEC9
:106F900010B5044608462170FFF76AFE00236360BF
:106FA000204610BD13B504460078FFF7EEFF58B930
:106FB000207801904FF6FF71FFF74AFE019802B06A
:106FC000BDE81040FFF7DEBF02B010BD0078FFF74C
:106FD000D9BF0000400830B5186000241868884206
:106FE000E5B206D90134082C02D040081860F5E754
:106FF0000725024B5B5D137030BD00BFF4980B009A
:107000002DE9F04306468FB000780C46FFF7BDFF30
:1070100000281BDB35781422002109A801F0D4FADE
:107020000B23002209A92846ADF82430FFF730FED3
:107030009DF82D3013B19DF82C5055B10027B9465D
:10704000B846012523795DB1C3B100200FB0BDE87A
:10705000F083DDF830809DF834909DF83570F1E7CD
:10706000002B35D1A368434508D18DF820908DF8C9
:107070002170BDF82020A3899A42E6D00023A168A0
:107080008DF80F300A9804AB0DF10F02FFF7A2FF45
:10709000217985B989B9A36843450ED38DF820902D
:1070A0008DF82170BDF82020A3899A4205D1049B58
:1070B000434502D1C9E70029F9D100230193637B3D
:1070C00000939DF80F20237B3078FFF7E9FDBCE7A4
:1070D000CDE900552B462A460121F5E708B5007891
:1070E000FFF7BEFDC0B208BD054B02221A60054B7A
:1070F000054A9A600020C3E90000FFF731BE00BFD7
:10710000D8E60320CCE603200000FFFF10B543685B
:10711000013B0446436063B903689B689847A368D2
:10712000013BA3602BB923682046DB68BDE8104013
:10713000184710BD024800230360FFF799BC00BF49
:10714000DCE60320F8B506460D468F180024BD4244
:107150000CD0336815F8011B9B6830469847031E16
:1071600001DB1C44F3E7002C08BF1C462046F8BD99
:1071700013B50446084659B10191FDF70FFC236889
:107180000199DB680246204602B0BDE8104018476E
:1071900002B010BD08B5FFF7EBFF08BD03689B68A0
:1071A000184738B50D210546FFF7F8FF0A210446B8
:1071B0002846FFF7F3FF204438BD38B50546FFF7F2
:1071C000D7FF04462846FFF7ECFF204438BD30B512
:1071D0008BB00023012A8DF8243098BF0A2209AC15
:1071E0000D46B1FBF2F101FB125303F0FF03092B33
:1071F00094BF30333733DBB2AA4204F8013DEFD9F4
:107200002146FFF7B5FF0BB030BD00002DE9F74F69
:1072100055EC104B06460F4610EE102A10EE100AE1
:107220002B462946FDF752FB40B153493046FFF744
:107230009FFF8246504603B0BDE8F08F25F000491D
:107240004E4B4FF0FF3220464946FDF73FFB48B911
:107250004A4B4FF0FF3220464946FDF719FB08B96B
:107260004749E3E7474B4FF0604220462946FDF788
:1072700023FB08B14449D9E7444B4FF06042204614
:107280002946FDF7FBFA0028F4D10022002320460E
:107290002946FDF7F3FAD0B12D213046FFF77EFFE6
:1072A00005F1004382461D463949DFF8EC904FF066
:1072B000000B00204FF000085FFA8BF39F4208D9C3
:1072C00042464B46FDF792F90BF1010BF4E782467B
:1072D000EAE722462B46FCF7A9FE0D460446FDF7D9
:1072E00033FB8046FCF7DEFF02460B46204629466C
:1072F000FCF79AFE0A2204460D4630464146FFF747
:1073000066FF8244002F95D02249DFF88C903046EA
:10731000FFF72EFF4FF000088244002F8AD042462C
:107320004B4620462946FDF737F804460D46FDF743
:10733000E3FAB0F1000B1CDA2D213046FFF72EFFE7
:10734000CBF1000103460A2230460193FFF73FFFCD
:10735000019B184482445846FCF7B4FF02460B4692
:1073600020462946FCF760FE013F04460D46FFB269
:10737000D3E759460023E6E704990B00FFFFEF7FB0
:1073800008990B00FFFFEF410C990B00FFFFEFC1C5
:107390000000E03F10990B0000002440C9B2FFF745
:1073A00035BF2DE9F04186B000AF05460E46381DC9
:1073B000142114463B60FFF787FD13280ED8391DB2
:1073C0002846FFF7D5FE04461EB12846FFF7E9FE22
:1073D000044420461837BD46BDE8F08100F108039B
:1073E00023F00703E846ADEB030D2246411C3B6842
:1073F0006846FFF769FD69462846FFF7B9FE04466F
:10740000C546E1E710B50446FFF71AFBE0602368C4
:1074100020465B699847002808DAFFF711FBE3680C
:10742000C01AA3689842F2D34FF0FF3010BD2DE987
:10743000F04107460C468E180D46B542A5EB0408F0
:1074400007D03846FFF7DEFF031E02DB05F8013BDD
:10745000F3E74046BDE8F081014B024A1A607047ED
:10746000E0E6032012990B00024B1A68024B1A60E7
:10747000704700BF7CE50320E4E603200021FFF70E
:1074800077BC000010B5044B03600446806908B166
:10749000FFF73CFE204610BD0C9A0B0010B50446C9
:1074A000FFF7F0FF20461C21FDF7BFFA204610BD74
:1074B000014B00229A607047E8E60320014B1860F8
:1074C000704700BF80E5032008B50B4B43B100F0C7
:1074D0007DF903681B699847002801DDAFF3008040
:1074E000064B43B100F0DCFE03681B699847002897
:1074F00001DDAFF3008008BD0000000000000000C7
:1075000008B5FFF7E1FFFFF79BFA014B186008BDD4
:1075100040E703200548064A064908B5121A01F05B
:1075200045F8054B054A1A6008BD00BF00F403206A
:1075300004F40320089E0B0000F403201E1C279A6D
:1075400007B5002300931A466FF07701FFF72AFC76
:1075500003B05DF804FB000007B543880A2B08D090
:10756000502B0BD1094B1B684BB103B05DF804EBFA
:107570001847FFF7E5FF03B05DF804FB0023009315
:107580001A466FF07701FFF70DFCF4E7FCE60320E5
:1075900010B512480021FFF7AFFC114B1A68114BD0
:1075A0009A42114B0CBF012200221A7001D0FFF742
:1075B000B1FFFFF735FA044601F00EF80B4B13B19B
:1075C0002046AFF3008000210848FFF75DFCBDE8CE
:1075D000104007480021FFF7DBBB00BFBD740B0064
:1075E00000F403201E1C279AF8E603200000000088
:1075F00059750B00704710B518210446FDF715FAB0
:10760000204610BDF0B5037D062B8DB00E4600F16F
:1076100004074FF0000412D000F1080515F8011D11
:107620000A223046FFF7D3FDAF42044419D0002CA4
:10763000F4D02E213046FFF7B1FD0444EEE72F23AE
:107640006A4639460A208DF80040FFF719FA684665
:10765000FDF7A4F933680246DB686946304698476F
:10766000044620460DB0F0BD10B5054B044611226E
:1076700040F8043B002100F0A7FF204610BD00BFEA
:107680003C990B000346074A10B543F8042B01F15F
:10769000100251F8044B43F8044B9142F9D10A7897
:1076A0001A7010BD3C990B00037D042B04D1406877
:1076B000003818BF01207047062B07D143683BB93B
:1076C00083682BB9C3681BB90069F1E700207047D4
:1076D0000120704710B59DF8084044EA032343EAAF
:1076E000024242EA016104234160037510BD0000BB
:1076F00007B5064B0360CB7800938B784A780978FE
:10770000FFF7E8FF03B05DF804FB00BF3C990B00F6
:10771000417470477047704708B50021007CFFF73F
:10772000F7FA40EAE07008BD08B50121007CFFF7D8
:10773000EFFA40EAE07008BD08B5007CFFF7E0FA18
:1077400020EAE07008BD08B5007CFFF7D1FA20EA16
:10775000E07008BD13B50446007C0191FFF7D0FA34
:107760000028019901DC607C20B1207CFFF7D8FA69
:1077700020EAE07002B010BD007CFFF7D9BA10B566
:1077800014210446FDF751F9204610BD10B54FF401
:107790007A73044608460021C4E90113044B2360B0
:1077A0000123207463741146FFF792FA204610BD3E
:1077B00050990B00007C0022FFF792BA10B51422FA
:1077C0000446002100F000FF204610BD10B50F4C0C
:1077D00088B003A8FFF7F2FF2178BFF35B8F11F0A9
:1077E00001010FD120460191FDF72EF9019948B111
:1077F00003AA0748FFF7CAFF2046FDF72AF9054804
:1078000000F0C6FE024808B010BD00BF00E703202C
:1078100004E7032015770B0070474174704708B5E3
:10782000007CFFF77DF920EAE07008BD08B5007C18
:10783000FFF74EF920EAE07008BD08B5007CFFF7BD
:1078400057F940EAE07008BD08B5007CFFF748F939
:1078500040EAE07008BD007CFFF752B937B5457CBF
:1078600004462DB1207C03B0BDE83040FFF728B9B5
:10787000007C0191FFF754F900280199F2DC2846B9
:1078800003B030BD10B514210446FDF7CEF82046F4
:1078900010BD000010B54FF47A7304460846114637
:1078A0000022C4E90123044B236001232074637484
:1078B000FFF73EF9204610BD80990B007047F8B5E0
:1078C000064615460C468F18BC4206D0336814F89D
:1078D000011B9B6830469847F6E72846F8BD007CB8
:1078E0000022FFF74DB9007C0021FFF751B9007C61
:1078F0000021FFF755B9007C0021FFF759B9007C42
:107900000021FFF75DB910B514210446FDF78DF88D
:10791000204610BD38B5044615464FF47A73002250
:10792000C4E90123094B2174084623602946FFF767
:1079300057F9BF3008D16B69DB0705D56868FFF7D9
:10794000B3FAE868FFF7B0FA204638BDB0990B00EB
:10795000007C0022FFF7F4B80023007C1A46194689
:10796000FFF7F6B8007C0022FFF7FAB8C9B2FFF7BC
:10797000F9BF007C0022FFF7FBB80121FFF7F9BF38
:1079800013B503688DF80710DC6B01224FF0FF334D
:107990000DF10701A04702B010BD10B40368DC6B05
:1079A0004FF0FF33A4465DF8044B604713B5134610
:1079B00002688DF80710D46B0DF107010122A04772
:1079C00002B010BD10B54369B3F88620B3F8843017
:1079D0009A42044608D06369B3F88420511CA3F886
:1079E00084101344187910BD03681B699847002858
:1079F000F1D14FF0FF30F6E7704743691868C04394
:107A0000C00F704770470000064B994210B500F157
:107A10000C0405D0084600F0A9FC002808BF00248B
:107A2000204610BDFC980B0010B5AC210446FCF7B5
:107A3000FCFF204610BDAC21FCF7F7BF2DE9F0415B
:107A40004FF0000886B01C46C0F8048005460E467C
:107A500017464146102202A800F0B6FD631C09D06B
:107A60004FF47A73B4FBF3F203FB1244CDE902281E
:107A70005C430494686910230093006802AB41F2F0
:107A8000050240F6FF71FFF7B3F8002807DAFFF7A9
:107A900023FA03686B60002006B0BDE8F0816869D6
:107AA000002300683A463146FFF7C2F8031EEEDBBA
:107AB0001846F1E730B587B0044601AD6846FFF7D8
:107AC00017FE0FCD04340FC42B68237007B030BDF0
:107AD00070B54D69054B04468C3544F8043B0646A9
:107AE0000FCD0FC42B682370304670BD3C990B003E
:107AF0002DE9F0439846036893B00D460024DB6AF5
:107B000006461746984728466B462246214600946B
:107B1000FEF736FF0546002863D1009B002B4BD0B3
:107B20005B69002B48D006A8FFF79EFD009B5C69AF
:107B30006378022B04D1211D06A8FFF7BBFF26E0C6
:107B40000A2B24D11122294601A800F03DFDA3688B
:107B5000002B38D004F108030DF1040C1834186818
:107B60005968624603C20833A3429446F7D10623FC
:107B700001A90CA88DF81430FFF784FD0DF1340C29
:107B8000BCE80F0007AC0FC4DCF80030237006A877
:107B9000FFF78AFD80B1336807ADD3F82090124B10
:107BA0000C930FCD0DAC0FC42B6823703A4643469F
:107BB0000CA93046C84705460098FEF7D9FE28466E
:107BC00013B0BDE8F083E368002BC3D14FF6FF701C
:107BD000D4F81090FEF75CFF8145BBD104F114018D
:107BE000AAE72546E8E700BF3C990B0038B5436992
:107BF0001A68002A054610DAB3F88620B3F88430F4
:107C00009A420AD103681B699847044628B92B6831
:107C10002846DB6A9847204638BD0120FCE710B5AE
:107C20004369B3F88620B3F884309A42044605D0FD
:107C30006369B3F884201344187910BD03681B6985
:107C400098470028F4D14FF0FF30F6E7F8B54369C4
:107C50001746B3F88620B3F884309A4205460E469C
:107C600016D06969B1F88430B1F88640E41ABC4294
:107C700028BF3C46043322461944304600F096FCA7
:107C80006A69B2F884302344A2F884302046F8BDF3
:107C900003681B6998470028E3D14FF0FF34F5E7EC
:107CA00042690023A2F884304269A2F88630704706
:107CB0002DE9F0411F4603680C46DB6A8AB0054691
:107CC00016469847237DD5F81480042B0CBF02205C
:107CD0000A2006220121FEF7B3FFC8F800006B69F5
:107CE0001B68002B08DA2B682846DB6A00249847BB
:107CF00020460AB0BDE8F0812846FFF7D1FFB7B1B2
:107D0000002303A9F8B20393ADF81030FEF780FE0C
:107D10000028E8D1686906230093006803AB41F2AC
:107D20000B0240F6FF71FEF763FF0028DBD11C2237
:107D3000002103A800F048FC237D042B1DD14FF443
:107D400007733046ADF80C30FEF7B2FEADF80E000A
:107D50006068FEF79DFE04906B691C22186803A9F9
:107D6000FEF756FF0028BED104340FCC6D698C3568
:107D70000FC523682B700124BAE740F61C23304658
:107D8000ADF80C30FEF794FE05AEADF80E00231DE5
:107D900004F1140718685968324603C20833BB421D
:107DA0001646F7D1D8E7000030B54269B2F8863000
:107DB0008BB004462BB1B2F884209A4201D1FFF770
:107DC0006FFF61690868002818DBB1F886507F2DC5
:107DD00014D804310823C5F180022944FEF720FF9E
:107DE000002813DD6369B3F886200AB9A3F884205C
:107DF0006369B3F886201044A3F886006369B3F87A
:107E00008600B3F88430C01A0BB030BDFFF764F8B9
:107E100003680B2BF2D0FFF75FF803680B2BEDD054
:107E200020230025CDE90235FFF756F803680193BA
:107E3000084B0949009302AA2B463220FEF788FF1F
:107E400063691868FEF7DCFE63694FF0FF321A6061
:107E5000D4E700BFD7990B00D0990B0010B5436948
:107E600004461868002801DBFEF7CAFE63694FF07C
:107E7000FF321A606069112200218C3000F0A4FBEF
:107E80002046BDE81040FFF70BBF10B500230446A5
:107E90000160C0F884308830FFF7E6FB204610BD53
:107EA00073B500234FF47A72C0E901320E4A0361C0
:107EB000026043610446AC200191FCF7B2FD051E4F
:107EC00005F10C0608D00123C5E90133074B0199E0
:107ED0002B603046FFF7D9FF2046C4E90565FFF760
:107EE000DFFE02B070BD00BF0C9A0B00F0990B00D2
:107EF00010B54FF0FF310446FFF7D2FF204610BD0A
:107F000010B504460068002801DBFEF779FE204624
:107F100010BD0C30FFF7F4BF002240681146FEF799
:107F200063BF002240681146FEF77EBF0022406812
:107F30001146FEF789BF40680022FEF77DBF40680A
:107F4000002281F00101FEF767BF002340681A4656
:107F50001946FEF759BF002340681A461946FEF736
:107F60004BBF002240681146FEF72EBF406800223A
:107F70000221FEF731BF002340681A46FEF71CBFFE
:107F8000024B04225A60024A1A60704718E7032025
:107F9000589A0B00002340681A46FEF70DBF406850
:107FA00000220221FEF718BF002240681146FEF7AA
:107FB0000BBF002240681146FEF716BF0023406841
:107FC0001A461946FEF718BF002340681A4619469C
:107FD000FEF71ABF40680021FEF73EBF406800214F
:107FE000FEF742BF4068002281F00101FEF714BF96
:107FF00040680022FEF720BF002240681146FEF7CD
:1080000023BF002240681146FEF70EBF2DE9F04362
:1080100095B014460D460746FFF726FB00211C22AB
:108020000DA8009100F0D0FA40230C9320466B4637
:108030000CAA0021FEF7A4FC044600284BD10246FE
:1080400001216868FEF7D0FE02218046224668685A
:10805000FEF7CAFE009E81462146002E3BD0002935
:1080600039D17368022B03D00A2B11D0F669F4E7DB
:10807000B8F1000FFAD0716906A8043107ADFFF717
:1080800037FB0FCD3C1D0FC42B6823704146EDE735
:10809000B9F1000FEAD07469102201A800F094FA37
:1080A00006238DF8143001AD04F108031834186864
:1080B00059682A4603C20833A3421546F7D101A9DD
:1080C00006A807ADFFF7DEFA0FCD3C1D0FC42B68E5
:1080D00023704946CAE70098FEF74AFC384615B0B7
:1080E000BDE8F083024B034A1A6000225A607047D1
:1080F00020E70320949A0B00232813B502D900200F
:1081000002B010BDA0F10B03022B1AD8174C217836
:10811000BFF35B8F11F001010BD120460191FCF7F9
:1081200093FC019928B11248FEF732FF2046FCF774
:1081300090FC0F4B1878FEF7A3FD0028DFD101203B
:10814000DEE7012809D800F0EBF80021007CFEF7FB
:108150003FFD80F00100C0B2D2E709380128EED817
:1081600000F09EF8007CFEF7D3FCF2E7B8E60320AF
:10817000BCE60320232838B504460D460AD8FF295B
:1081800008D0FFF7B9FF28B129462046BDE838409E
:10819000FEF706BC38BD38B504460D46FEF708FCB0
:1081A000FF2810D0062804D84D2323FA00F0C30777
:1081B00009D42046FFF7A0FF28B129462046BDE894
:1081C0003840FEF7FDBB38BD10B50446FEF7F0FBA6
:1081D000031FDBB2012B08D92046FFF78DFF20B12A
:1081E0002046BDE81040FEF7F3BB002010BD0D286F
:1081F00010B504469CBF0E34A4B22046FFF77CFFA6
:1082000050B103212046FEF7C3FB032804D12046CA
:10821000BDE81040FEF7ECBB002010BD38B50446A9
:108220000D46FFF769FFF0B104212046FEF7B0FBD1
:10823000042805D1A9B22046BDE83840FEF7D0BBDE
:1082400002212046FEF7A4FB02280CD12046FEF7AF
:10825000AFFB012801D0042805D129462046BDE8FE
:108260003840FEF7CDBB38BD7047000038B5044636
:1082700014252A46002100F0A7F92580402507494A
:1082800025812846258200F06FF804496060284661
:1082900000F06AF8E060204638BD00BFC89A0B00C5
:1082A00030B50E4D2978BFF35B8F11F0010487B014
:1082B00011D12846FCF7C8FB68B101A8FFF7D6FF2B
:1082C00001AA21460648FFF7E5FA2846FCF7C1FB5C
:1082D000044800F05DF9024807B030BD28E70320EC
:1082E0002CE7032069820B007047000038B50A4B69
:1082F00003600123044643610849202000F034F85C
:10830000202560600549A560284600F02DF8C4E9E5
:108310000305204638BD00BF18000100C89A0B00B5
:1083200030B50E4D2978BFF35B8F11F0010487B093
:1083300011D12846FCF788FB68B16846FFF7D6FFE5
:108340006A4621460648FFF7E5FA2846FCF781FB16
:10835000044800F01DF9024807B030BD44E703208F
:1083600048E70320E9820B00FCF75DBB014900F000
:10837000F9B800BFE49A0B007FB500241023CDE9C3
:108380000234036815469E6912686B46CDE90044C5
:10839000B0479DF8043003F00603062B03BF009B93
:1083A0002B600120204604B070BD0098904214BF9D
:1083B000012006207047000010B5034B03600446FF
:1083C00000F0CDF8204610BD249B0B0010B50446EC
:1083D000FFF7F2FF20460821FCF727FB204610BDDF
:1083E0002DE9F0411F46DDE90834DDF81880984595
:1083F0000646154607D1079900F0B4F818B1657123
:108400000020BDE8F0813946304600F0ABF8002886
:10841000F6D00123C4F800802571A371F0E738B5C8
:1084200015461C4600F09EF820B10823E3600623A1
:108430002560237138BD73B505460C4601921E4672
:1084400000F090F850B9032E08D82368019A5B69B0
:108450002946204602B0BDE87040184702B070BD02
:1084600010B5034B03600446FFF7A6FF204610BD7E
:10847000849B0B0010B50446FFF7F2FF20460C2149
:10848000FCF7D3FA204610BDF7B5089F9742054682
:108490000E4614460AD0A86802680897156A314645
:1084A0002246AC4603B0BDE8F04060471946019350
:1084B00000F058F8019B0028EDD0062003B0F0BD75
:1084C0002DE9F14F0D461946DDE90A4BDDE90CA611
:1084D00081461746984600F045F890B1002D34606B
:1084E000377109DB61198A450CBF06210121B17181
:1084F000002001B0BDE8F08F0235F9D10123B3713E
:10850000F6E7544506D15946484600F02BF808B125
:108510007771EDE7D9F808000368CDE90CA6CDE93D
:108520000A4BDC693A4643462946A44601B0BDE8F9
:10853000F04F60472DE9F04107460C4615461E46B0
:10854000FFF76DFF48B9B86803689F692A4633464C
:108550002146BC46BDE8F0416047BDE8F081704768
:1085600000207047814208B50ED0406803782A2B5E
:108570000CD049680B782A2B08BF0131FCF704FAAC
:10858000B0FA80F0400908BD0120FCE70020FAE7BE
:10859000002301461A46184600F0ECB80A220021D2
:1085A00000F0DEB80A22002100F0DAB80A44914255
:1085B00000F1FF3300D1704710B511F8014B03F8FB
:1085C000014F9142F9D110BD02440346934200D1BC
:1085D000704703F8011BF9E738B5104B1D68AB6B0A
:1085E0000446B3B91820FEF757FC0246A86320B929
:1085F0000B4B0C484221FEF777FC0B490B4BC0E9B3
:1086000000130B4B83600B23838100210120C2E9FF
:108610000401AB6B00221C615A6138BD80E5032068
:10862000BD9B0B00D49B0B000E33CDAB34126DE61B
:10863000ECDE050010B50139034632B111F8014FE7
:1086400003F8014B013A002CF7D11A440021934260
:1086500000D110BD03F8011BF9E70000012B2DE943
:10866000F04701D0242B06D9FEF736FC1623036011
:108670000020BDE8F087DFF8E4C00D462E4615F86F
:10868000014B14F80C7017F00807F7D12D2C32D1DC
:108690002C780127B51C002B5BD0102B09D1302C76
:1086A00007D12C7804F0DF04582C4DD16C781023BE
:1086B000023507F1004808F1FF384FF0000CB8FB15
:1086C000F3F9664603FB198AA4F1300EBEF1090FD7
:1086D00016D87446A34224DDBCF1000F1EDBB14561
:1086E0001CD301D1A24519DB06FB03464FF0010C58
:1086F00015F8014BE8E72B2C04BF2C78B51CCAE712
:10870000A4F1410EBEF1190F01D8373CE2E7A4F104
:10871000610EBEF1190F04D8573CDBE74FF0FF3C68
:10872000E6E7BCF1000F05DA22230360464642B9B2
:1087300030469EE707B17642002AF9D0BCF1000F1F
:1087400000D0691E1160F3E73024002BB1D108235B
:10875000AFE7302CA5D00A23ABE700BF529C0B003B
:1087600013460A46014602480068FFF777BF00BF7C
:1087700080E503202DE9F843DFF8B8800646D8F8F5
:1087800000001F460D46914600F056F8254B1C6828
:1087900034B9254C1C60254B13B11B68C4F88830D4
:1087A00063681F2B07DDD8F8000000F047F84FF092
:1087B000FF30BDE8F8834EB3D4F8880088B91C4B6D
:1087C00023B9D8F8000000F038F8F0E74FF48470CF
:1087D000FEF762FB0028F4D00023C0E94033C4F860
:1087E0008800636840F8239001229A4000EB8301DF
:1087F000D0F800311343C0F80031022EC1F8807068
:1088000002BFD0F804311343C0F804316368D8F8CC
:1088100000005A1C0233626044F8235000F00EF846
:108820000020C6E7E8E703205CE703200000000023
:10883000996E0B00E4E50320704770477047000015
:10884000AD490B00E9490B00114A0B00154A0B001A
:108850000000000043616C6C206F6E2070757265C3
:10886000207669727475616C00256900256C690059
:10887000696E006F75740070776D006477006177C2
:1088800000746D706C00544D504C324B585269302E
:108890003065730076770025322E37660070616E82
:1088A000696320627574746F6E2041206861732063
:1088B0006265656E207072657373656400627574BD
:1088C000746F6E6100616C6572740050757368201E
:1088D00053656E740054454D5045524154555245B0
:1088E0000043203A20004600397233504D764B3613
:1088F00037715854495550573047754B346D594F5F
:10890000632D78545856613100626C796E6B2E631A
:108910006C6F756400626C6E6B696E660076657272
:1089200000312E312E3000682D62656174003435BF
:1089300000627566662D696E003130323400646500
:1089400076005061727469636C65204172676F6E66
:108950000066772D7479706500544D504C324B5839
:10896000526930306573006275696C64004A756ED7
:1089700020333020323032332031313A33383A30FC
:108980003000000064656661756C7420004D5342D0
:10899000004C5342003C53504953657474696E67F0
:1089A000732064656661756C743E003C5350495396
:1089B000657474696E67732025732575202573208F
:1089C0004D4F444525753E0000000000003E5B4FC2
:1089D0005B3E3E6B4F6B3E1C3E7C3E1C183C7E3C1F
:1089E000181C577D571C1C5E7F5E1C00183C18002D
:1089F000FFE7C3E7FF0018241800FFE7DBE7FF30BD
:108A0000483A060E2629792926407F050507407F2A
:108A100005253F5A3CE73C5A7F3E1C1C08081C1C9D
:108A20003E7F14227F22145F5F005F5F06097F0193
:108A30007F006689956A606060606094A2FFA2947E
:108A400008047E040810207E201008082A1C08084C
:108A50001C2A08081E101010100C1E0C1E0C30389A
:108A60003E3830060E3E0E06000000000000005F9B
:108A700000000007000700147F147F14242A7F2AB7
:108A80001223130864623649562050000807030079
:108A9000001C2241000041221C002A1C7F1C2A08C5
:108AA000083E080800807030000808080808000028
:108AB00060600020100804023E5149453E00427F9C
:108AC000400072494949462141494D331814127FEB
:108AD0001027454545393C4A49493141211109078B
:108AE0003649494936464949291E0000140000000C
:108AF00040340000000814224114141414140041DE
:108B000022140802015909063E415D594E7C12119A
:108B1000127C7F494949363E414141227F414141D2
:108B20003E7F494949417F090909013E414151734D
:108B30007F0808087F00417F41002040413F017FBE
:108B4000081422417F404040407F021C027F7F0486
:108B500008107F3E4141413E7F090909063E4151CF
:108B6000215E7F09192946264949493203017F01BF
:108B7000033F4040403F1F2040201F3F4038403FC0
:108B8000631408146303047804036159494D4300D6
:108B90007F4141410204081020004141417F04020D
:108BA00001020440404040400003070800205454A4
:108BB00078407F2844443838444444283844442882
:108BC0007F385454541800087E090218A4A49C78D5
:108BD0007F0804047800447D40002040403D007F31
:108BE0001028440000417F40007C047804787C0811
:108BF0000404783844444438FC18242418182424E5
:108C000018FC7C08040408485454542404043F44C9
:108C1000243C4040207C1C2040201C3C4030403CF8
:108C200044281028444C9090907C4464544C440058
:108C300008364100000077000000413608000201BC
:108C40000204023C2623263C1EA1A161123A4040A8
:108C5000207A385454555921555579412254547825
:108C600042215554784020545579400C1E527212BE
:108C70003955555559395454545939555454580047
:108C800000457C410002457D420001457C407D124B
:108C900011127DF0282528F07C54554500205454AD
:108CA0007C547C0A097F4932494949323A44444458
:108CB0003A324A4848303A4141217A3A4240207893
:108CC000009DA0A07D3D4242423D3D4040403D3C94
:108CD00024FF2424487E4943662B2FFC2F2BFF09B9
:108CE00029F620C0887E09032054547941000044AD
:108CF0007D413048484A32384040227A007A0A0A98
:108D0000727D0D19317D2629292F2826292929260A
:108D100030484D4020380808080808080808382F4F
:108D200010C8ACBA2F102834FA00007B00000814D9
:108D30002A142222142A14085500550055AA55AAAF
:108D400055AAFF55FF55FF000000FF00101010FF4F
:108D500000141414FF001010FF00FF1010F010F0AA
:108D6000141414FC001414F700FF0000FF00FF149B
:108D700014F404FC141417101F10101F101F1414E7
:108D8000141F00101010F0000000001F1010101031
:108D90001F10101010F010000000FF101010101025
:108DA00010101010FF10000000FF140000FF00FF63
:108DB00000001F10170000FC04F4141417101714FF
:108DC00014F404F40000FF00F71414141414141421
:108DD000F700F7141414171410101F101F14141494
:108DE000F4141010F010F000001F101F0000001FFE
:108DF00014000000FC140000F010F01010FF10FF31
:108E0000141414FF141010101F00000000F010FFC5
:108E1000FFFFFFFFF0F0F0F0F0FFFFFF00000000A9
:108E200000FFFF0F0F0F0F0F3844443844FC4A4A2D
:108E30004A347E02020606027E027E0263554941E2
:108E4000633844443C04407E201E2006027E020219
:108E500099A5E7A5991C2A492A1C4C7201724C302D
:108E60004A4D4D303048784830BC625A463D3E4904
:108E70004949007E0101017E2A2A2A2A2A44445FA8
:108E8000444440514A444040444A51400000FF019C
:108E900003E080FF000008086B6B083612362436AA
:108EA000060F090F0600001818000000101000300F
:108EB00040FF0101001F01011E00191D1712003C97
:108EC0003C3C3C00000000000000000000000000EE
:108ED0000000000000000000595D0B0045710B0010
:108EE000314A0B005F570B0061570B0093570B0083
:108EF0006F570B0081570B00A1560B005F570B00FB
:108F00008B590B0089590B00AB570B00E9570B002D
:108F100023580B0069580B0085580B0009590B00AA
:108F20000000000000000000695E0B00895E0B007D
:108F3000595D0B0045710B0071600B005F570B0012
:108F400061570B0093570B006F570B0081570B00B5
:108F5000A1560B005F570B008B590B000F620B00E3
:108F6000B7670B0069670B0023580B0069580B00AB
:108F700085580B0009590B0000000000000000009C
:108F80004D560B0021560B0023560B00000000002D
:108F900000018000000000000000000003800000CD
:108FA0000000000000000007C000000000000000FA
:108FB000000007C00000000000000000000FC0001B
:108FC00000000000000000001FE0000000000000A2
:108FD0000000001FE00000000000000000003FE073
:108FE0000000000000000000003FF0000000000052
:108FF000000000007FF0000000000000001FF87F6C
:10900000F0000000000000003FFE7FF000000000C4
:109010000000003FFF7FF0000000000000001FFF85
:10902000FBE0000000000000000FFFF9FFC000009F
:10903000000000000FFFF9FFF8000000000000072B
:10904000FFF1FFFF00000000000003FC73FFFF8042
:10905000000000000001FE3FFFFF80000000000054
:1090600000FF1E0FFF000000000000007FFE1FFC3D
:10907000000000000000003FFFFFF80000000000BB
:1090800000000FDFFFE0000000000000001F19FFDC
:10909000C0000000000000003F3CFF000000000096
:1090A0000000007E7CF800000000000000007FFE51
:1090B0007C0000000000000000FFFFFC000000003A
:1090C00000000000FFFFFE0000000000000000FFA5
:1090D000FFFE0000000000000001FFEFFE000000A6
:1090E0000000000001FFCFFE0000000000000003B0
:1090F000FF07FE0000000000000003FC07FE000068
:10910000000000000003F003FE000000000000006B
:10911000018000FE000000000000000000007E0052
:109120000000000000000000003E00000000000001
:10913000000000000C000000000000078000FC00A0
:109140000003C0000000078001FC000003C0000015
:1091500000078001FC000003C0000000078001E060
:109160000000001E000000078001E00000001E005B
:109170007FE3F79FF9FDE7787BDFC0FFF7FFBFFDD7
:10918000FDFF787BDFC0FFF7FFBFFDFDFF787BDFD2
:10919000C0F0F787BC3DE1FF787BDE00F0F787BCCD
:1091A0003DE1F0787BDE0000F787803DE1E0787BF1
:1091B000DE007FF7879FFDE1E0787BDE00FFF78729
:1091C000BFFDE1E0787BDE00F0F787BC3DE1E078B1
:1091D0007BDE00F0F787BC3DE1E0787BDE00F0F756
:1091E00087BC3DE1E0787BDE00FFF7FFBFFDE1E0FB
:1091F0007FFBDFC0FFF7FFBFFDE1E07FFBDFC07C4F
:10920000F3F39F3DE1E03E7BCFC000000000000093
:109210000000000000FFFFFFFFFFFFFFFFFFFFC098
:10922000FFFFFFFFFD68DB111A31C0FFFFFFFFFDED
:109230002B5AFB6AEFC0FFFFFFFFFD4B5B3B1A336E
:10924000C0FFFFFFFFFD6B5BDB6AFDC0000060003D
:1092500000000000000000000000000000E000002E
:10926000000000000000000000000001E00000001D
:109270000000000000000000000001F000000000FD
:1092800000000000000000000003F00000000000EB
:10929000000000000000000007F0000000000000D7
:1092A0000000000000000007F800000000000000BF
:1092B0000000000000000FF800000003C0007E0066
:1092C0000001E0007F0FF800000003C000FE000076
:1092D00001E000FFEFF800000003C000FE00000105
:1092E000E000FFFFF800000003C000F00000000FE6
:1092F000007FFE7FC0000003C000F00000000F00F0
:109300003FFE7FF83FF1FBCFFCFEF3BC3DEFE01FDB
:10931000FE7FFF7FFBFFDFFEFEFFBC3DEFE01FC6D1
:10932000FFFF7FFBFFDFFEFEFFBC3DEFE00FE3C76B
:10933000FE787BC3DE1EF0FFBC3DEF0007FF87FC1D
:10934000787BC3DE1EF0F83C3DEF0001FFFFF0002C
:109350007BC3C01EF0F03C3DEF0001F37FE03FFB1C
:10936000C3CFFEF0F03C3DEF0003E33F807FFBC343
:10937000DFFEF0F03C3DEF0007E73C00787BC3DE0A
:109380001EF0F03C3DEF0007FFBE00787BC3DE1E01
:10939000F0F03C3DEF0007FFFE00787BC3DE1EF0DF
:1093A000F03C3DEF000FFFFE007FFBFFDFFEF0F023
:1093B0003FFDEFE00FFFFF007FFBFFDFFEF0F03F20
:1093C000FDEFE00FF9FF003E79F9CF9EF0F01F3D71
:1093D000E7E01FF1FF0000000000000000000000B7
:1093E000001F80FF007FFFFFFFFFFFFFFFFFFFE089
:1093F0001C007F007FFFFFFFFEB46D888D18E0002A
:10940000001F007FFFFFFFFE95AD7DB577E00000F8
:109410000F007FFFFFFFFEA5AD9D8D19E000000648
:10942000007FFFFFFFFEB5ADEDB57EE00000000060
:109430000000000045600B005D600B00595D0B00F3
:1094400045710B0071600B005F570B0061570B00FB
:1094500093570B006F570B0081570B00A1560B0061
:109460005F570B008B590B000F620B00B7670B00A7
:1094700069670B0023580B0069580B0085580B00D7
:1094800009590B000080C0E0F0F8FCFE0001030762
:109490000F1F3F7FAED580A8D300408D2000A1C80C
:1094A000DB40A4A62EAFDA02818FDA1281DA0281C4
:1094B0002200FF210000000041690B0041690B0000
:1094C00041690B0041690B0041690B0041690B00C8
:1094D00041690B0041690B0041690B0041690B00B8
:1094E00041690B0041690B0041690B0041690B00A8
:1094F00041690B0041690B0041690B0041690B0098
:1095000041690B0041690B0041690B0041690B0087
:1095100041690B0041690B0041690B0041690B0077
:1095200041690B0041690B0041690B0041690B0067
:1095300041690B0041690B0041690B0041690B0057
:1095400041690B0041690B0041690B0041690B0047
:1095500041690B0041690B0041690B0041690B0037
:1095600041690B0041690B0041690B0041690B0027
:1095700041690B0041690B0041690B0041690B0017
:1095800041690B0041690B0041690B0041690B0007
:1095900041690B0041690B0041690B0041690B00F7
:1095A00041690B0041690B0041690B0041690B00E7
:1095B00041690B0041690B0041690B0041690B00D7
:1095C00041690B0041690B0041690B0041690B00C7
:1095D00041690B0041690B0041690B0041690B00B7
:1095E00041690B0041690B0041690B0041690B00A7
:1095F00041690B0041690B0041690B0041690B0097
:1096000041690B0041690B0041690B0041690B0086
:1096100041690B0041690B0041690B0041690B0076
:1096200041690B0041690B0041690B0041690B0066
:1096300041690B0041690B0041690B0041690B0056
:1096400041690B0041690B0041690B0041690B0046
:1096500041690B0041690B0041690B0041690B0036
:1096600041690B0041690B0041690B0041690B0026
:1096700041690B0041690B0041690B0041690B0016
:1096800041690B0041690B0041690B0041690B0006
:1096900041690B0041690B0041690B0041690B00F6
:1096A00041690B0041690B0041690B0041690B00E6
:1096B00041690B0041690B0043690B0043690B00D2
:1096C00043690B0043690B0043690B0043690B00BE
:1096D00043690B0043690B0043690B0043690B00AE
:1096E00043690B0043690B0043690B0043690B009E
:1096F00043690B0043690B0043690B0043690B008E
:1097000043690B0043690B0043690B0043690B007D
:1097100043690B0043690B0043690B0043690B006D
:1097200043690B0043690B0043690B0043690B005D
:1097300043690B0043690B0043690B0043690B004D
:1097400043690B0043690B0043690B0043690B003D
:1097500043690B0043690B0043690B0043690B002D
:1097600043690B0043690B0043690B0043690B001D
:1097700043690B0043690B0043690B0043690B000D
:1097800043690B0043690B0043690B0043690B00FD
:1097900043690B0043690B0043690B0043690B00ED
:1097A00043690B0043690B0043690B0043690B00DD
:1097B00043690B0043690B0043690B0043690B00CD
:1097C00043690B0043690B0043690B0043690B00BD
:1097D00043690B0043690B0043690B0043690B00AD
:1097E00043690B0043690B0043690B0043690B009D
:1097F00043690B0043690B0043690B0043690B008D
:1098000043690B0043690B0043690B0043690B007C
:1098100043690B0043690B0043690B0043690B006C
:1098200043690B0043690B0043690B0043690B005C
:1098300043690B0043690B0043690B0043690B004C
:1098400043690B0043690B0043690B0043690B003C
:1098500043690B0043690B0043690B0043690B002C
:1098600043690B0043690B0043690B0043690B001C
:1098700043690B0043690B0043690B0043690B000C
:1098800043690B0043690B0043690B0043690B00FC
:1098900043690B0043690B0043690B0043690B00EC
:1098A00043690B0043690B0043690B0043690B00DC
:1098B00043690B0043690B0000000000000000003A
:1098C000676F0B005D6F0B00536F0B00496F0B0050
:1098D0003D6F0B00316F0B00D57F0B00DD7F0B0060
:1098E000256F0B001D6F0B00136F0B00096F0B0032
:1098F0000D800B00000810182028303800000000F0
:10990000000000006E616E00696E66006F76660092
:109910002E006170700025592D256D2D256454256C
:10992000483A254D3A2553257A0061736374696D71
:1099300065000000000000000000000005760B003C
:10994000F5750B00F7750B0000000000000000002B
:1099500017770B007F770B0055770B0045710B00D5
:1099600047770B0019770B0029770B0079770B00ED
:1099700039770B0011770B00000000000000000099
:1099800019780B0085780B005D780B0045710B0092
:109990002D780B0049780B003B780B0057780B00B3
:1099A0001B780B001F780B00000000000000000077
:1099B000BD780B0007790B00DF780B00BF780B0038
:1099C000E7780B00EF780B00F7780B00FF780B00BF
:1099D000776972696E670072656376206572726F6F
:1099E00072203D20256400000000000000000000FF
:1099F000057A0B00297A0B00137F0B00377A0B00D6
:109A0000097A0B00000000000000000085740B00C4
:109A10009D740B0081790B009B790B00A97D0B00D5
:109A2000C5790B001F7C0B00F9790B00B17C0B0092
:109A3000F17A0B004D7C0B005D7E0B00ED7B0B0083
:109A4000FB790B00AD790B003D7A0B00D17A0B004E
:109A50000000000000000000777F0B006D7F0B000E
:109A6000637F0B00197F0B00577F0B004B7F0B00B0
:109A7000D57F0B00DD7F0B003F7F0B00377F0B0096
:109A80002D7F0B00237F0B000D800B0000000000DA
:109A900000000000957F0B009F7F0B00A97F0B004B
:109AA000B37F0B00BD7F0B00C97F0B00D57F0B0080
:109AB000DD7F0B00E57F0B00F17F0B00F97F0B00D2
:109AC00003800B000D800B0000537431395F53701D
:109AD0005F6D616B655F7368617265645F74616718
